:060000000A128A110C280F
:10000800FE00030EF1000A08F2000A128A111729ED
:100018000A128A110F28F701F801F901FA01830180
:100028000A128A117B28F5008316031381127508BA
:1000380003191F2820282228811153287508031D19
:1000480026282728532881155328F8308105782831
:10005800F830810578280108F839013881007828B6
:100068000108F8390238810078280108F83903387E
:10007800810078280108F8390438810078280108B7
:10008800F8390538810078280108F83906388100E0
:100098007828073081047828F83081057828750891
:1000A800F300F4017408003A03195B285028730818
:1000B800003A03192928023A03192C28063A031989
:1000C8002F280C3A03193428183A03193928303ADA
:1000D80003193E28603A03194328C03A03194828EF
:1000E8007F3A03194D2850288B160B110800013050
:1000F8000A128A11DE200A128A11FF300A128A11A6
:1001080017200A128A110A128A1175210A128A11F5
:100118000A128A1136210A128A118312031309104E
:10012800523083120313A000A00B982800007A080D
:100138000A128A117B210A128A117808031DA52840
:10014800A628BD280A128A1165210A128A1183126B
:100158000313A0002008F700F801F80A52308312B0
:100168000313A000A00BB628000083120313091480
:10017800CF280A128A1165210A128A1183120313E1
:100188008600523083120313A000A00BC928000078
:10019800831203130914213083120313A10075304D
:1001A800A000A00BD528A10BD528DA2891280A127F
:1001B8008A110C28F500FF28831603130F088F39BE
:1001C80040388F001529831603130F088F395038CC
:1001D8008F001529831603130F088F3960388F0095
:1001E80015297030831603138F0415297030831670
:1001F80003138F0415297508F300F4017408003AF5
:1002080003190729FA287308013A0319E028033A61
:100218000319E728063A0319EE280C3A0319F528BA
:10022800FA280F1408000B1D1A291B292F29013041
:10023800F0007008F9070A307906031D24292529DA
:100248002A290130F0007008FA07F9010A128A1108
:1002580081210A128A1172088A00710E8300FE0E2B
:100268007E0E09008316031788018901831603137C
:100278008601091083120313860101308900F301F6
:10028800F401F50120300A128A114F210A128A114D
:100298008B170B170800F600831603138712761DB9
:1002A800562957295B297508940087155F29730813
:1002B800750494008711760874048312031394005C
:1002C80008000A128A116E210A128A118312031376
:1002D8001308080083160313141C732974296E2944
:1002E80008009E308312031381000B110800F300ED
:1002F800730883120313930008009E3083120313BC
:0603080081000B1108004A
:08400000FF3FFF3FFF3FFF3FC0
:04400E00D420FF3F7C
:00000001FF
